{
  "contractName": "SupplyChain",
  "abi": [
    {
      "inputs": [],
      "stateMutability": "nonpayable",
      "type": "constructor"
    },
    {
      "anonymous": false,
      "inputs": [
        {
          "indexed": true,
          "internalType": "address",
          "name": "from",
          "type": "address"
        },
        {
          "indexed": true,
          "internalType": "address",
          "name": "to",
          "type": "address"
        },
        {
          "indexed": false,
          "internalType": "uint256",
          "name": "amount",
          "type": "uint256"
        },
        {
          "indexed": false,
          "internalType": "uint256",
          "name": "productId",
          "type": "uint256"
        },
        {
          "indexed": false,
          "internalType": "enum SupplyChain.STAGE",
          "name": "stage",
          "type": "uint8"
        }
      ],
      "name": "PaymentMade",
      "type": "event"
    },
    {
      "anonymous": false,
      "inputs": [
        {
          "indexed": true,
          "internalType": "uint256",
          "name": "productId",
          "type": "uint256"
        },
        {
          "indexed": false,
          "internalType": "enum SupplyChain.STAGE",
          "name": "stage",
          "type": "uint8"
        }
      ],
      "name": "StageUpdated",
      "type": "event"
    },
    {
      "inputs": [
        {
          "internalType": "uint256",
          "name": "",
          "type": "uint256"
        }
      ],
      "name": "DIS",
      "outputs": [
        {
          "internalType": "address",
          "name": "addr",
          "type": "address"
        },
        {
          "internalType": "uint256",
          "name": "id",
          "type": "uint256"
        },
        {
          "internalType": "string",
          "name": "name",
          "type": "string"
        },
        {
          "internalType": "string",
          "name": "place",
          "type": "string"
        }
      ],
      "stateMutability": "view",
      "type": "function",
      "constant": true
    },
    {
      "inputs": [
        {
          "internalType": "uint256",
          "name": "",
          "type": "uint256"
        }
      ],
      "name": "MAN",
      "outputs": [
        {
          "internalType": "address",
          "name": "addr",
          "type": "address"
        },
        {
          "internalType": "uint256",
          "name": "id",
          "type": "uint256"
        },
        {
          "internalType": "string",
          "name": "name",
          "type": "string"
        },
        {
          "internalType": "string",
          "name": "place",
          "type": "string"
        }
      ],
      "stateMutability": "view",
      "type": "function",
      "constant": true
    },
    {
      "inputs": [
        {
          "internalType": "uint256",
          "name": "",
          "type": "uint256"
        }
      ],
      "name": "MedicineStock",
      "outputs": [
        {
          "internalType": "uint256",
          "name": "id",
          "type": "uint256"
        },
        {
          "internalType": "string",
          "name": "name",
          "type": "string"
        },
        {
          "internalType": "uint256",
          "name": "price",
          "type": "uint256"
        },
        {
          "internalType": "uint256",
          "name": "quantity",
          "type": "uint256"
        },
        {
          "internalType": "uint256",
          "name": "expirationDate",
          "type": "uint256"
        },
        {
          "internalType": "uint256",
          "name": "timestamp",
          "type": "uint256"
        },
        {
          "internalType": "uint256",
          "name": "MANid",
          "type": "uint256"
        },
        {
          "internalType": "uint256",
          "name": "SHIPid",
          "type": "uint256"
        },
        {
          "internalType": "uint256",
          "name": "DISid",
          "type": "uint256"
        },
        {
          "internalType": "uint256",
          "name": "WARid",
          "type": "uint256"
        },
        {
          "internalType": "enum SupplyChain.STAGE",
          "name": "stage",
          "type": "uint8"
        }
      ],
      "stateMutability": "view",
      "type": "function",
      "constant": true
    },
    {
      "inputs": [],
      "name": "Owner",
      "outputs": [
        {
          "internalType": "address",
          "name": "",
          "type": "address"
        }
      ],
      "stateMutability": "view",
      "type": "function",
      "constant": true
    },
    {
      "inputs": [
        {
          "internalType": "uint256",
          "name": "",
          "type": "uint256"
        }
      ],
      "name": "SHIP",
      "outputs": [
        {
          "internalType": "address",
          "name": "addr",
          "type": "address"
        },
        {
          "internalType": "uint256",
          "name": "id",
          "type": "uint256"
        },
        {
          "internalType": "string",
          "name": "name",
          "type": "string"
        },
        {
          "internalType": "string",
          "name": "place",
          "type": "string"
        }
      ],
      "stateMutability": "view",
      "type": "function",
      "constant": true
    },
    {
      "inputs": [
        {
          "internalType": "uint256",
          "name": "",
          "type": "uint256"
        }
      ],
      "name": "WAR",
      "outputs": [
        {
          "internalType": "address",
          "name": "addr",
          "type": "address"
        },
        {
          "internalType": "uint256",
          "name": "id",
          "type": "uint256"
        },
        {
          "internalType": "string",
          "name": "name",
          "type": "string"
        },
        {
          "internalType": "string",
          "name": "place",
          "type": "string"
        }
      ],
      "stateMutability": "view",
      "type": "function",
      "constant": true
    },
    {
      "inputs": [],
      "name": "disCtr",
      "outputs": [
        {
          "internalType": "uint256",
          "name": "",
          "type": "uint256"
        }
      ],
      "stateMutability": "view",
      "type": "function",
      "constant": true
    },
    {
      "inputs": [],
      "name": "manCtr",
      "outputs": [
        {
          "internalType": "uint256",
          "name": "",
          "type": "uint256"
        }
      ],
      "stateMutability": "view",
      "type": "function",
      "constant": true
    },
    {
      "inputs": [],
      "name": "medicineCtr",
      "outputs": [
        {
          "internalType": "uint256",
          "name": "",
          "type": "uint256"
        }
      ],
      "stateMutability": "view",
      "type": "function",
      "constant": true
    },
    {
      "inputs": [],
      "name": "shipCtr",
      "outputs": [
        {
          "internalType": "uint256",
          "name": "",
          "type": "uint256"
        }
      ],
      "stateMutability": "view",
      "type": "function",
      "constant": true
    },
    {
      "inputs": [],
      "name": "warCtr",
      "outputs": [
        {
          "internalType": "uint256",
          "name": "",
          "type": "uint256"
        }
      ],
      "stateMutability": "view",
      "type": "function",
      "constant": true
    },
    {
      "stateMutability": "payable",
      "type": "receive",
      "payable": true
    },
    {
      "inputs": [
        {
          "internalType": "uint256",
          "name": "_medicineID",
          "type": "uint256"
        }
      ],
      "name": "showStage",
      "outputs": [
        {
          "internalType": "string",
          "name": "",
          "type": "string"
        }
      ],
      "stateMutability": "view",
      "type": "function",
      "constant": true
    },
    {
      "inputs": [
        {
          "internalType": "uint256",
          "name": "_productId",
          "type": "uint256"
        }
      ],
      "name": "startManufacturing",
      "outputs": [],
      "stateMutability": "payable",
      "type": "function",
      "payable": true
    },
    {
      "inputs": [
        {
          "internalType": "uint256",
          "name": "_productId",
          "type": "uint256"
        }
      ],
      "name": "startShipping",
      "outputs": [],
      "stateMutability": "payable",
      "type": "function",
      "payable": true
    },
    {
      "inputs": [
        {
          "internalType": "uint256",
          "name": "_productId",
          "type": "uint256"
        }
      ],
      "name": "startDistribution",
      "outputs": [],
      "stateMutability": "payable",
      "type": "function",
      "payable": true
    },
    {
      "inputs": [
        {
          "internalType": "uint256",
          "name": "_productId",
          "type": "uint256"
        }
      ],
      "name": "storeInWarehouse",
      "outputs": [],
      "stateMutability": "payable",
      "type": "function",
      "payable": true
    },
    {
      "inputs": [
        {
          "internalType": "uint256",
          "name": "_medicineID",
          "type": "uint256"
        }
      ],
      "name": "sell",
      "outputs": [],
      "stateMutability": "payable",
      "type": "function",
      "payable": true
    },
    {
      "inputs": [
        {
          "internalType": "string",
          "name": "_name",
          "type": "string"
        },
        {
          "internalType": "uint256",
          "name": "_price",
          "type": "uint256"
        },
        {
          "internalType": "uint256",
          "name": "_quantity",
          "type": "uint256"
        },
        {
          "internalType": "uint256",
          "name": "_expirationDate",
          "type": "uint256"
        }
      ],
      "name": "addMedicine",
      "outputs": [],
      "stateMutability": "nonpayable",
      "type": "function"
    },
    {
      "inputs": [
        {
          "internalType": "address",
          "name": "_addr",
          "type": "address"
        },
        {
          "internalType": "string",
          "name": "_name",
          "type": "string"
        },
        {
          "internalType": "string",
          "name": "_place",
          "type": "string"
        }
      ],
      "name": "addManufacturer",
      "outputs": [],
      "stateMutability": "nonpayable",
      "type": "function"
    },
    {
      "inputs": [
        {
          "internalType": "address",
          "name": "_addr",
          "type": "address"
        },
        {
          "internalType": "string",
          "name": "_name",
          "type": "string"
        },
        {
          "internalType": "string",
          "name": "_place",
          "type": "string"
        }
      ],
      "name": "addShippingAgent",
      "outputs": [],
      "stateMutability": "nonpayable",
      "type": "function"
    },
    {
      "inputs": [
        {
          "internalType": "address",
          "name": "_addr",
          "type": "address"
        },
        {
          "internalType": "string",
          "name": "_name",
          "type": "string"
        },
        {
          "internalType": "string",
          "name": "_place",
          "type": "string"
        }
      ],
      "name": "addDistributor",
      "outputs": [],
      "stateMutability": "nonpayable",
      "type": "function"
    },
    {
      "inputs": [
        {
          "internalType": "address",
          "name": "_addr",
          "type": "address"
        },
        {
          "internalType": "string",
          "name": "_name",
          "type": "string"
        },
        {
          "internalType": "string",
          "name": "_place",
          "type": "string"
        }
      ],
      "name": "addWarehouseAgent",
      "outputs": [],
      "stateMutability": "nonpayable",
      "type": "function"
    }
  ],
  "bytecode": "0x60806040526000600155600060025560006003556000600455600060055534801561002957600080fd5b50336000806101000a81548173ffffffffffffffffffffffffffffffffffffffff021916908373ffffffffffffffffffffffffffffffffffffffff1602179055506135e3806100796000396000f3fe6080604052600436106101395760003560e01c80638afc54d9116100ab578063cc4030691161006f578063cc403069146103e8578063de10552614610428578063e101a2e014610468578063e4849b32146104a5578063e7979689146104c1578063eb1a06b5146104dd57610140565b80638afc54d91461032f578063a95f29d91461035a578063aa891f2214610385578063b4a99a4e146103a1578063b79a104c146103cc57610140565b8063476a4558116100fd578063476a45581461022d5780634b4c9c66146102565780634ce2dd421461029657806359d233d8146102c15780636a992c9f146102ea5780637d0ac2c41461031357610140565b80632923cb6f146101455780632a4af4401461016e5780632b0187ac146101975780632bdb2e6b146101d7578063438e9c4d1461020257610140565b3661014057005b600080fd5b34801561015157600080fd5b5061016c60048036038101906101679190612b2b565b610524565b005b34801561017a57600080fd5b5061019560048036038101906101909190612b2b565b6106ab565b005b3480156101a357600080fd5b506101be60048036038101906101b99190612c25565b610832565b6040516101ce9493929190612f75565b60405180910390f35b3480156101e357600080fd5b506101ec610992565b6040516101f99190613145565b60405180910390f35b34801561020e57600080fd5b50610217610998565b6040516102249190613145565b60405180910390f35b34801561023957600080fd5b50610254600480360381019061024f9190612b2b565b61099e565b005b34801561026257600080fd5b5061027d60048036038101906102789190612c25565b610b25565b60405161028d9493929190612f75565b60405180910390f35b3480156102a257600080fd5b506102ab610c85565b6040516102b89190613145565b60405180910390f35b3480156102cd57600080fd5b506102e860048036038101906102e39190612baa565b610c8b565b005b3480156102f657600080fd5b50610311600480360381019061030c9190612b2b565b610eaa565b005b61032d60048036038101906103289190612c25565b611031565b005b34801561033b57600080fd5b5061034461124d565b6040516103519190613145565b60405180910390f35b34801561036657600080fd5b5061036f611253565b60405161037c9190613145565b60405180910390f35b61039f600480360381019061039a9190612c25565b611259565b005b3480156103ad57600080fd5b506103b6611475565b6040516103c39190612f5a565b60405180910390f35b6103e660048036038101906103e19190612c25565b611499565b005b3480156103f457600080fd5b5061040f600480360381019061040a9190612c25565b611616565b60405161041f9493929190612f75565b60405180910390f35b34801561043457600080fd5b5061044f600480360381019061044a9190612c25565b611776565b60405161045f9493929190612f75565b60405180910390f35b34801561047457600080fd5b5061048f600480360381019061048a9190612c25565b6118d6565b60405161049c9190612fe3565b60405180910390f35b6104bf60048036038101906104ba9190612c25565b611e7e565b005b6104db60048036038101906104d69190612c25565b612333565b005b3480156104e957600080fd5b5061050460048036038101906104ff9190612c25565b61254f565b60405161051b9b9a99989796959493929190613160565b60405180910390f35b60008054906101000a900473ffffffffffffffffffffffffffffffffffffffff1673ffffffffffffffffffffffffffffffffffffffff163373ffffffffffffffffffffffffffffffffffffffff16146105b2576040517f08c379a00000000000000000000000000000000000000000000000000000000081526004016105a9906130c5565b60405180910390fd5b600360008154809291906105c590613426565b919050555060405180608001604052808473ffffffffffffffffffffffffffffffffffffffff16815260200160035481526020018381526020018281525060086000600354815260200190815260200160002060008201518160000160006101000a81548173ffffffffffffffffffffffffffffffffffffffff021916908373ffffffffffffffffffffffffffffffffffffffff1602179055506020820151816001015560408201518160020190805190602001906106859291906129f6565b5060608201518160030190805190602001906106a29291906129f6565b50905050505050565b60008054906101000a900473ffffffffffffffffffffffffffffffffffffffff1673ffffffffffffffffffffffffffffffffffffffff163373ffffffffffffffffffffffffffffffffffffffff1614610739576040517f08c379a0000000000000000000000000000000000000000000000000000000008152600401610730906130c5565b60405180910390fd5b6004600081548092919061074c90613426565b919050555060405180608001604052808473ffffffffffffffffffffffffffffffffffffffff16815260200160045481526020018381526020018281525060096000600454815260200190815260200160002060008201518160000160006101000a81548173ffffffffffffffffffffffffffffffffffffffff021916908373ffffffffffffffffffffffffffffffffffffffff16021790555060208201518160010155604082015181600201908051906020019061080c9291906129f6565b5060608201518160030190805190602001906108299291906129f6565b50905050505050565b60096020528060005260406000206000915090508060000160009054906101000a900473ffffffffffffffffffffffffffffffffffffffff1690806001015490806002018054610881906133f4565b80601f01602080910402602001604051908101604052809291908181526020018280546108ad906133f4565b80156108fa5780601f106108cf576101008083540402835291602001916108fa565b820191906000526020600020905b8154815290600101906020018083116108dd57829003601f168201915b50505050509080600301805461090f906133f4565b80601f016020809104026020016040519081016040528092919081815260200182805461093b906133f4565b80156109885780601f1061095d57610100808354040283529160200191610988565b820191906000526020600020905b81548152906001019060200180831161096b57829003601f168201915b5050505050905084565b60045481565b60025481565b60008054906101000a900473ffffffffffffffffffffffffffffffffffffffff1673ffffffffffffffffffffffffffffffffffffffff163373ffffffffffffffffffffffffffffffffffffffff1614610a2c576040517f08c379a0000000000000000000000000000000000000000000000000000000008152600401610a23906130c5565b60405180910390fd5b60056000815480929190610a3f90613426565b919050555060405180608001604052808473ffffffffffffffffffffffffffffffffffffffff168152602001600554815260200183815260200182815250600a6000600554815260200190815260200160002060008201518160000160006101000a81548173ffffffffffffffffffffffffffffffffffffffff021916908373ffffffffffffffffffffffffffffffffffffffff160217905550602082015181600101556040820151816002019080519060200190610aff9291906129f6565b506060820151816003019080519060200190610b1c9291906129f6565b50905050505050565b60086020528060005260406000206000915090508060000160009054906101000a900473ffffffffffffffffffffffffffffffffffffffff1690806001015490806002018054610b74906133f4565b80601f0160208091040260200160405190810160405280929190818152602001828054610ba0906133f4565b8015610bed5780601f10610bc257610100808354040283529160200191610bed565b820191906000526020600020905b815481529060010190602001808311610bd057829003601f168201915b505050505090806003018054610c02906133f4565b80601f0160208091040260200160405190810160405280929190818152602001828054610c2e906133f4565b8015610c7b5780601f10610c5057610100808354040283529160200191610c7b565b820191906000526020600020905b815481529060010190602001808311610c5e57829003601f168201915b5050505050905084565b60035481565b60008054906101000a900473ffffffffffffffffffffffffffffffffffffffff1673ffffffffffffffffffffffffffffffffffffffff163373ffffffffffffffffffffffffffffffffffffffff1614610d19576040517f08c379a0000000000000000000000000000000000000000000000000000000008152600401610d10906130c5565b60405180910390fd5b60016000815480929190610d2c90613426565b919050555060405180610160016040528060015481526020018581526020018481526020018381526020018281526020014281526020016000815260200160008152602001600081526020016000815260200160006005811115610db9577f4e487b7100000000000000000000000000000000000000000000000000000000600052602160045260246000fd5b815250600660006001548152602001908152602001600020600082015181600001556020820151816001019080519060200190610df79291906129f6565b5060408201518160020155606082015181600301556080820151816004015560a0820151816005015560c0820151816006015560e082015181600701556101008201518160080155610120820151816009015561014082015181600a0160006101000a81548160ff02191690836005811115610e9c577f4e487b7100000000000000000000000000000000000000000000000000000000600052602160045260246000fd5b021790555090505050505050565b60008054906101000a900473ffffffffffffffffffffffffffffffffffffffff1673ffffffffffffffffffffffffffffffffffffffff163373ffffffffffffffffffffffffffffffffffffffff1614610f38576040517f08c379a0000000000000000000000000000000000000000000000000000000008152600401610f2f906130c5565b60405180910390fd5b60026000815480929190610f4b90613426565b919050555060405180608001604052808473ffffffffffffffffffffffffffffffffffffffff16815260200160025481526020018381526020018281525060076000600254815260200190815260200160002060008201518160000160006101000a81548173ffffffffffffffffffffffffffffffffffffffff021916908373ffffffffffffffffffffffffffffffffffffffff16021790555060208201518160010155604082015181600201908051906020019061100b9291906129f6565b5060608201518160030190805190602001906110289291906129f6565b50905050505050565b60006006600083815260200190815260200160002090506000606460918360030154846002015461106291906132f7565b61106c91906132f7565b61107691906132c6565b90506000600960008460080154815260200190815260200160002060000160009054906101000a900473ffffffffffffffffffffffffffffffffffffffff1690508134146110f9576040517f08c379a00000000000000000000000000000000000000000000000000000000081526004016110f090613065565b60405180910390fd5b8073ffffffffffffffffffffffffffffffffffffffff166108fc839081150290604051600060405180830381858888f1935050505015801561113f573d6000803e3d6000fd5b506111493361263e565b8360090181905550600483600a0160006101000a81548160ff0219169083600581111561119f577f4e487b7100000000000000000000000000000000000000000000000000000000600052602160045260246000fd5b0217905550837fe07678ebda9ff268c2c8531bb0ebfc488d9fa7067d919572337a14a72c3aa0b760046040516111d59190612fc8565b60405180910390a28073ffffffffffffffffffffffffffffffffffffffff163373ffffffffffffffffffffffffffffffffffffffff167ff35f1f16f2541a8f5c4870ae5cf7e4be7e22659d12e6e3021b1a49f552959e283487600460405161123f93929190613212565b60405180910390a350505050565b60055481565b60015481565b600060066000838152602001908152602001600020905060006064607d8360030154846002015461128a91906132f7565b61129491906132f7565b61129e91906132c6565b90506000600760008460060154815260200190815260200160002060000160009054906101000a900473ffffffffffffffffffffffffffffffffffffffff169050813414611321576040517f08c379a000000000000000000000000000000000000000000000000000000000815260040161131890613065565b60405180910390fd5b8073ffffffffffffffffffffffffffffffffffffffff166108fc839081150290604051600060405180830381858888f19350505050158015611367573d6000803e3d6000fd5b506113713361272c565b8360070181905550600283600a0160006101000a81548160ff021916908360058111156113c7577f4e487b7100000000000000000000000000000000000000000000000000000000600052602160045260246000fd5b0217905550837fe07678ebda9ff268c2c8531bb0ebfc488d9fa7067d919572337a14a72c3aa0b760026040516113fd9190612fc8565b60405180910390a28073ffffffffffffffffffffffffffffffffffffffff163373ffffffffffffffffffffffffffffffffffffffff167ff35f1f16f2541a8f5c4870ae5cf7e4be7e22659d12e6e3021b1a49f552959e283487600260405161146793929190613212565b60405180910390a350505050565b60008054906101000a900473ffffffffffffffffffffffffffffffffffffffff1681565b60006006600083815260200190815260200160002090506000816003015482600201546114c691906132f7565b905080341461150a576040517f08c379a000000000000000000000000000000000000000000000000000000000815260040161150190613065565b60405180910390fd5b6115133361281a565b8260060181905550600182600a0160006101000a81548160ff02191690836005811115611569577f4e487b7100000000000000000000000000000000000000000000000000000000600052602160045260246000fd5b0217905550827fe07678ebda9ff268c2c8531bb0ebfc488d9fa7067d919572337a14a72c3aa0b7600160405161159f9190612fc8565b60405180910390a23073ffffffffffffffffffffffffffffffffffffffff163373ffffffffffffffffffffffffffffffffffffffff167ff35f1f16f2541a8f5c4870ae5cf7e4be7e22659d12e6e3021b1a49f552959e283486600160405161160993929190613212565b60405180910390a3505050565b60076020528060005260406000206000915090508060000160009054906101000a900473ffffffffffffffffffffffffffffffffffffffff1690806001015490806002018054611665906133f4565b80601f0160208091040260200160405190810160405280929190818152602001828054611691906133f4565b80156116de5780601f106116b3576101008083540402835291602001916116de565b820191906000526020600020905b8154815290600101906020018083116116c157829003601f168201915b5050505050908060030180546116f3906133f4565b80601f016020809104026020016040519081016040528092919081815260200182805461171f906133f4565b801561176c5780601f106117415761010080835404028352916020019161176c565b820191906000526020600020905b81548152906001019060200180831161174f57829003601f168201915b5050505050905084565b600a6020528060005260406000206000915090508060000160009054906101000a900473ffffffffffffffffffffffffffffffffffffffff16908060010154908060020180546117c5906133f4565b80601f01602080910402602001604051908101604052809291908181526020018280546117f1906133f4565b801561183e5780601f106118135761010080835404028352916020019161183e565b820191906000526020600020905b81548152906001019060200180831161182157829003601f168201915b505050505090806003018054611853906133f4565b80601f016020809104026020016040519081016040528092919081815260200182805461187f906133f4565b80156118cc5780601f106118a1576101008083540402835291602001916118cc565b820191906000526020600020905b8154815290600101906020018083116118af57829003601f168201915b5050505050905084565b60606000821180156118ea57506001548211155b611929576040517f08c379a000000000000000000000000000000000000000000000000000000000815260040161192090613085565b60405180910390fd5b60006005811115611963577f4e487b7100000000000000000000000000000000000000000000000000000000600052602160045260246000fd5b60066000848152602001908152602001600020600a0160009054906101000a900460ff1660058111156119bf577f4e487b7100000000000000000000000000000000000000000000000000000000600052602160045260246000fd5b1415611a02576040518060400160405280600f81526020017f50726f64756374204f72646572656400000000000000000000000000000000008152509050611e79565b60016005811115611a3c577f4e487b7100000000000000000000000000000000000000000000000000000000600052602160045260246000fd5b60066000848152602001908152602001600020600a0160009054906101000a900460ff166005811115611a98577f4e487b7100000000000000000000000000000000000000000000000000000000600052602160045260246000fd5b1415611adb576040518060400160405280601381526020017f4d616e75666163747572696e67205374616765000000000000000000000000008152509050611e79565b60026005811115611b15577f4e487b7100000000000000000000000000000000000000000000000000000000600052602160045260246000fd5b60066000848152602001908152602001600020600a0160009054906101000a900460ff166005811115611b71577f4e487b7100000000000000000000000000000000000000000000000000000000600052602160045260246000fd5b1415611bb4576040518060400160405280600e81526020017f5368697070696e672053746167650000000000000000000000000000000000008152509050611e79565b60036005811115611bee577f4e487b7100000000000000000000000000000000000000000000000000000000600052602160045260246000fd5b60066000848152602001908152602001600020600a0160009054906101000a900460ff166005811115611c4a577f4e487b7100000000000000000000000000000000000000000000000000000000600052602160045260246000fd5b1415611c8d576040518060400160405280601281526020017f446973747269627574696f6e20537461676500000000000000000000000000008152509050611e79565b60046005811115611cc7577f4e487b7100000000000000000000000000000000000000000000000000000000600052602160045260246000fd5b60066000848152602001908152602001600020600a0160009054906101000a900460ff166005811115611d23577f4e487b7100000000000000000000000000000000000000000000000000000000600052602160045260246000fd5b1415611d66576040518060400160405280600f81526020017f57617265686f75736520537461676500000000000000000000000000000000008152509050611e79565b600580811115611d9f577f4e487b7100000000000000000000000000000000000000000000000000000000600052602160045260246000fd5b60066000848152602001908152602001600020600a0160009054906101000a900460ff166005811115611dfb577f4e487b7100000000000000000000000000000000000000000000000000000000600052602160045260246000fd5b1415611e3e576040518060400160405280600c81526020017f50726f6475637420536f6c6400000000000000000000000000000000000000008152509050611e79565b6040517f08c379a0000000000000000000000000000000000000000000000000000000008152600401611e70906130e5565b60405180910390fd5b919050565b600081118015611e9057506001548111155b611ecf576040517f08c379a0000000000000000000000000000000000000000000000000000000008152600401611ec690613085565b60405180910390fd5b6000611eda3361263e565b905060008111611f1f576040517f08c379a0000000000000000000000000000000000000000000000000000000008152600401611f1690613045565b60405180910390fd5b60066000838152602001908152602001600020600901548114611f77576040517f08c379a0000000000000000000000000000000000000000000000000000000008152600401611f6e90613125565b60405180910390fd5b60046005811115611fb1577f4e487b7100000000000000000000000000000000000000000000000000000000600052602160045260246000fd5b60066000848152602001908152602001600020600a0160009054906101000a900460ff16600581111561200d577f4e487b7100000000000000000000000000000000000000000000000000000000600052602160045260246000fd5b1461204d576040517f08c379a0000000000000000000000000000000000000000000000000000000008152600401612044906130a5565b60405180910390fd5b600060066000848152602001908152602001600020905060008160030154826002015461207a91906132f7565b90506000606460918361208d91906132f7565b61209791906132c6565b90508034146120db576040517f08c379a00000000000000000000000000000000000000000000000000000000081526004016120d290613065565b60405180910390fd5b6000600760008560060154815260200190815260200160002060000160009054906101000a900473ffffffffffffffffffffffffffffffffffffffff1690506000600860008660070154815260200190815260200160002060000160009054906101000a900473ffffffffffffffffffffffffffffffffffffffff1690506000600960008760080154815260200190815260200160002060000160009054906101000a900473ffffffffffffffffffffffffffffffffffffffff1690508073ffffffffffffffffffffffffffffffffffffffff166108fc859081150290604051600060405180830381858888f193505050501580156121de573d6000803e3d6000fd5b508173ffffffffffffffffffffffffffffffffffffffff166108fc609160878761220891906132f7565b61221291906132c6565b9081150290604051600060405180830381858888f1935050505015801561223d573d6000803e3d6000fd5b508273ffffffffffffffffffffffffffffffffffffffff166108fc6091607d8761226791906132f7565b61227191906132c6565b9081150290604051600060405180830381858888f1935050505015801561229c573d6000803e3d6000fd5b50600586600a0160006101000a81548160ff021916908360058111156122eb577f4e487b7100000000000000000000000000000000000000000000000000000000600052602160045260246000fd5b0217905550877fe07678ebda9ff268c2c8531bb0ebfc488d9fa7067d919572337a14a72c3aa0b760056040516123219190612fc8565b60405180910390a25050505050505050565b60006006600083815260200190815260200160002090506000606460878360030154846002015461236491906132f7565b61236e91906132f7565b61237891906132c6565b90506000600860008460070154815260200190815260200160002060000160009054906101000a900473ffffffffffffffffffffffffffffffffffffffff1690508134146123fb576040517f08c379a00000000000000000000000000000000000000000000000000000000081526004016123f290613065565b60405180910390fd5b8073ffffffffffffffffffffffffffffffffffffffff166108fc839081150290604051600060405180830381858888f19350505050158015612441573d6000803e3d6000fd5b5061244b33612908565b8360080181905550600383600a0160006101000a81548160ff021916908360058111156124a1577f4e487b7100000000000000000000000000000000000000000000000000000000600052602160045260246000fd5b0217905550837fe07678ebda9ff268c2c8531bb0ebfc488d9fa7067d919572337a14a72c3aa0b760036040516124d79190612fc8565b60405180910390a28073ffffffffffffffffffffffffffffffffffffffff163373ffffffffffffffffffffffffffffffffffffffff167ff35f1f16f2541a8f5c4870ae5cf7e4be7e22659d12e6e3021b1a49f552959e283487600360405161254193929190613212565b60405180910390a350505050565b6006602052806000526040600020600091509050806000015490806001018054612578906133f4565b80601f01602080910402602001604051908101604052809291908181526020018280546125a4906133f4565b80156125f15780601f106125c6576101008083540402835291602001916125f1565b820191906000526020600020905b8154815290600101906020018083116125d457829003601f168201915b50505050509080600201549080600301549080600401549080600501549080600601549080600701549080600801549080600901549080600a0160009054906101000a900460ff1690508b565b600080600190505b60055481116126eb578273ffffffffffffffffffffffffffffffffffffffff16600a600083815260200190815260200160002060000160009054906101000a900473ffffffffffffffffffffffffffffffffffffffff1673ffffffffffffffffffffffffffffffffffffffff1614156126d857600a600082815260200190815260200160002060010154915050612727565b80806126e390613426565b915050612646565b506040517f08c379a000000000000000000000000000000000000000000000000000000000815260040161271e90613045565b60405180910390fd5b919050565b600080600190505b60035481116127d9578273ffffffffffffffffffffffffffffffffffffffff166008600083815260200190815260200160002060000160009054906101000a900473ffffffffffffffffffffffffffffffffffffffff1673ffffffffffffffffffffffffffffffffffffffff1614156127c6576008600082815260200190815260200160002060010154915050612815565b80806127d190613426565b915050612734565b506040517f08c379a000000000000000000000000000000000000000000000000000000000815260040161280c90613005565b60405180910390fd5b919050565b600080600190505b60025481116128c7578273ffffffffffffffffffffffffffffffffffffffff166007600083815260200190815260200160002060000160009054906101000a900473ffffffffffffffffffffffffffffffffffffffff1673ffffffffffffffffffffffffffffffffffffffff1614156128b4576007600082815260200190815260200160002060010154915050612903565b80806128bf90613426565b915050612822565b506040517f08c379a00000000000000000000000000000000000000000000000000000000081526004016128fa90613025565b60405180910390fd5b919050565b600080600190505b60045481116129b5578273ffffffffffffffffffffffffffffffffffffffff166009600083815260200190815260200160002060000160009054906101000a900473ffffffffffffffffffffffffffffffffffffffff1673ffffffffffffffffffffffffffffffffffffffff1614156129a25760096000828152602001908152602001600020600101549150506129f1565b80806129ad90613426565b915050612910565b506040517f08c379a00000000000000000000000000000000000000000000000000000000081526004016129e890613105565b60405180910390fd5b919050565b828054612a02906133f4565b90600052602060002090601f016020900481019282612a245760008555612a6b565b82601f10612a3d57805160ff1916838001178555612a6b565b82800160010185558215612a6b579182015b82811115612a6a578251825591602001919060010190612a4f565b5b509050612a789190612a7c565b5090565b5b80821115612a95576000816000905550600101612a7d565b5090565b6000612aac612aa78461327a565b613249565b905082815260208101848484011115612ac457600080fd5b612acf8482856133b2565b509392505050565b600081359050612ae68161357f565b92915050565b600082601f830112612afd57600080fd5b8135612b0d848260208601612a99565b91505092915050565b600081359050612b2581613596565b92915050565b600080600060608486031215612b4057600080fd5b6000612b4e86828701612ad7565b935050602084013567ffffffffffffffff811115612b6b57600080fd5b612b7786828701612aec565b925050604084013567ffffffffffffffff811115612b9457600080fd5b612ba086828701612aec565b9150509250925092565b60008060008060808587031215612bc057600080fd5b600085013567ffffffffffffffff811115612bda57600080fd5b612be687828801612aec565b9450506020612bf787828801612b16565b9350506040612c0887828801612b16565b9250506060612c1987828801612b16565b91505092959194509250565b600060208284031215612c3757600080fd5b6000612c4584828501612b16565b91505092915050565b612c5781613351565b82525050565b612c66816133a0565b82525050565b6000612c77826132aa565b612c8181856132b5565b9350612c918185602086016133c1565b612c9a8161355a565b840191505092915050565b6000612cb26019836132b5565b91507f5368697070696e67206167656e74206e6f7420666f756e642e000000000000006000830152602082019050919050565b6000612cf26017836132b5565b91507f4d616e756661637475726572206e6f7420666f756e642e0000000000000000006000830152602082019050919050565b6000612d32601a836132b5565b91507f57617265686f757365206167656e74206e6f7420666f756e642e0000000000006000830152602082019050919050565b6000612d726019836132b5565b91507f496e636f7272656374207061796d656e7420616d6f756e742e000000000000006000830152602082019050919050565b6000612db26014836132b5565b91507f496e76616c6964206d65646963696e652049442e0000000000000000000000006000830152602082019050919050565b6000612df26010836132b5565b91507f496e636f72726563742073746167652e000000000000000000000000000000006000830152602082019050919050565b6000612e326027836132b5565b91507f4f6e6c7920746865206f776e65722063616e20706572666f726d20746869732060008301527f616374696f6e2e000000000000000000000000000000000000000000000000006020830152604082019050919050565b6000612e986010836132b5565b91507f5374616765206e6f7420666f756e642e000000000000000000000000000000006000830152602082019050919050565b6000612ed86016836132b5565b91507f4469737472696275746f72206e6f7420666f756e642e000000000000000000006000830152602082019050919050565b6000612f186017836132b5565b91507f556e617574686f72697a65642077617265686f7573652e0000000000000000006000830152602082019050919050565b612f5481613396565b82525050565b6000602082019050612f6f6000830184612c4e565b92915050565b6000608082019050612f8a6000830187612c4e565b612f976020830186612f4b565b8181036040830152612fa98185612c6c565b90508181036060830152612fbd8184612c6c565b905095945050505050565b6000602082019050612fdd6000830184612c5d565b92915050565b60006020820190508181036000830152612ffd8184612c6c565b905092915050565b6000602082019050818103600083015261301e81612ca5565b9050919050565b6000602082019050818103600083015261303e81612ce5565b9050919050565b6000602082019050818103600083015261305e81612d25565b9050919050565b6000602082019050818103600083015261307e81612d65565b9050919050565b6000602082019050818103600083015261309e81612da5565b9050919050565b600060208201905081810360008301526130be81612de5565b9050919050565b600060208201905081810360008301526130de81612e25565b9050919050565b600060208201905081810360008301526130fe81612e8b565b9050919050565b6000602082019050818103600083015261311e81612ecb565b9050919050565b6000602082019050818103600083015261313e81612f0b565b9050919050565b600060208201905061315a6000830184612f4b565b92915050565b600061016082019050613176600083018e612f4b565b8181036020830152613188818d612c6c565b9050613197604083018c612f4b565b6131a4606083018b612f4b565b6131b1608083018a612f4b565b6131be60a0830189612f4b565b6131cb60c0830188612f4b565b6131d860e0830187612f4b565b6131e6610100830186612f4b565b6131f4610120830185612f4b565b613202610140830184612c5d565b9c9b505050505050505050505050565b60006060820190506132276000830186612f4b565b6132346020830185612f4b565b6132416040830184612c5d565b949350505050565b6000604051905081810181811067ffffffffffffffff821117156132705761326f61352b565b5b8060405250919050565b600067ffffffffffffffff8211156132955761329461352b565b5b601f19601f8301169050602081019050919050565b600081519050919050565b600082825260208201905092915050565b60006132d182613396565b91506132dc83613396565b9250826132ec576132eb61349e565b5b828204905092915050565b600061330282613396565b915061330d83613396565b9250817fffffffffffffffffffffffffffffffffffffffffffffffffffffffffffffffff04831182151516156133465761334561346f565b5b828202905092915050565b600061335c82613376565b9050919050565b60008190506133718261356b565b919050565b600073ffffffffffffffffffffffffffffffffffffffff82169050919050565b6000819050919050565b60006133ab82613363565b9050919050565b82818337600083830152505050565b60005b838110156133df5780820151818401526020810190506133c4565b838111156133ee576000848401525b50505050565b6000600282049050600182168061340c57607f821691505b602082108114156134205761341f6134fc565b5b50919050565b600061343182613396565b91507fffffffffffffffffffffffffffffffffffffffffffffffffffffffffffffffff8214156134645761346361346f565b5b600182019050919050565b7f4e487b7100000000000000000000000000000000000000000000000000000000600052601160045260246000fd5b7f4e487b7100000000000000000000000000000000000000000000000000000000600052601260045260246000fd5b7f4e487b7100000000000000000000000000000000000000000000000000000000600052602160045260246000fd5b7f4e487b7100000000000000000000000000000000000000000000000000000000600052602260045260246000fd5b7f4e487b7100000000000000000000000000000000000000000000000000000000600052604160045260246000fd5b6000601f19601f8301169050919050565b6006811061357c5761357b6134cd565b5b50565b61358881613351565b811461359357600080fd5b50565b61359f81613396565b81146135aa57600080fd5b5056fea26469706673582212200c2ab38bc7d7e7bd3a814fc84c99ff5fca4e973c778f69881de693db125468d964736f6c63430008000033",
  "immutableReferences": {},
  "source": "// SPDX-License-Identifier: MIT\npragma solidity >=0.8.0 <0.9.0;\n\ncontract SupplyChain {\n    address public Owner;\n\n    constructor() {\n        Owner = msg.sender;\n    }\n\n    modifier onlyByOwner() {\n        require(msg.sender == Owner, \"Only the owner can perform this action.\");\n        _;\n    }\n\n    enum STAGE {\n        Init,\n        Manufacture,\n        Shipping,\n        Distribution,\n        Warehouse,\n        Sold\n    }\n\n    uint256 public medicineCtr = 0;\n    uint256 public manCtr = 0;\n    uint256 public shipCtr = 0;\n    uint256 public disCtr = 0;\n    uint256 public warCtr = 0;\n\n    struct Medicine {\n        uint256 id;\n        string name;\n        uint256 price;\n        uint256 quantity;\n        uint256 expirationDate;\n        uint256 timestamp;\n        uint256 MANid;\n        uint256 SHIPid;\n        uint256 DISid;\n        uint256 WARid;\n        STAGE stage;\n    }\n\n    mapping(uint256 => Medicine) public MedicineStock;\n\n    struct Manufacturer {\n        address addr;\n        uint256 id;\n        string name;\n        string place;\n    }\n\n    mapping(uint256 => Manufacturer) public MAN;\n\n    struct ShippingAgent {\n        address addr;\n        uint256 id;\n        string name;\n        string place;\n    }\n\n    mapping(uint256 => ShippingAgent) public SHIP;\n\n    struct Distributor {\n        address addr;\n        uint256 id;\n        string name;\n        string place;\n    }\n\n    mapping(uint256 => Distributor) public DIS;\n\n    struct WarehouseAgent {\n        address addr;\n        uint256 id;\n        string name;\n        string place;\n    }\n\n    mapping(uint256 => WarehouseAgent) public WAR;\n\n    event StageUpdated(uint256 indexed productId, STAGE stage);\n    event PaymentMade(address indexed from, address indexed to, uint256 amount, uint256 productId, STAGE stage);\n\n    function findManufacturer(address _address) internal view returns (uint256) {\n        for (uint256 i = 1; i <= manCtr; i++) {\n            if (MAN[i].addr == _address) return MAN[i].id;\n        }\n        revert(\"Manufacturer not found.\");\n    }\n\n    function findShippingAgent(address _address) internal view returns (uint256) {\n        for (uint256 i = 1; i <= shipCtr; i++) {\n            if (SHIP[i].addr == _address) return SHIP[i].id;\n        }\n        revert(\"Shipping agent not found.\");\n    }\n\n    function findDistributor(address _address) internal view returns (uint256) {\n        for (uint256 i = 1; i <= disCtr; i++) {\n            if (DIS[i].addr == _address) return DIS[i].id;\n        }\n        revert(\"Distributor not found.\");\n    }\n\n    function findWarehouseAgent(address _address) internal view returns (uint256) {\n        for (uint256 i = 1; i <= warCtr; i++) {\n            if (WAR[i].addr == _address) return WAR[i].id;\n        }\n        revert(\"Warehouse agent not found.\");\n    }\n\n    function showStage(uint256 _medicineID) public view returns (string memory) {\n        require(_medicineID > 0 && _medicineID <= medicineCtr, \"Invalid medicine ID.\");\n\n        if (MedicineStock[_medicineID].stage == STAGE.Init)\n            return \"Product Ordered\";\n        else if (MedicineStock[_medicineID].stage == STAGE.Manufacture)\n            return \"Manufacturing Stage\";\n        else if (MedicineStock[_medicineID].stage == STAGE.Shipping)\n            return \"Shipping Stage\";\n        else if (MedicineStock[_medicineID].stage == STAGE.Distribution)\n            return \"Distribution Stage\";\n        else if (MedicineStock[_medicineID].stage == STAGE.Warehouse)\n            return \"Warehouse Stage\";\n        else if (MedicineStock[_medicineID].stage == STAGE.Sold)\n            return \"Product Sold\";\n\n        revert(\"Stage not found.\");\n    }\n\n    function startManufacturing(uint256 _productId) public payable {\n        Medicine storage med = MedicineStock[_productId];\n        uint256 paymentAmount = med.price * med.quantity;\n        require(msg.value == paymentAmount, \"Incorrect payment amount.\");\n\n        med.MANid = findManufacturer(msg.sender);\n        med.stage = STAGE.Manufacture;\n        emit StageUpdated(_productId, STAGE.Manufacture);\n        emit PaymentMade(msg.sender, address(this), msg.value, _productId, STAGE.Manufacture);\n    }\n\n    function startShipping(uint256 _productId) public payable {\n        Medicine storage med = MedicineStock[_productId];\n        uint256 paymentAmount = (med.price * med.quantity) * 125 / 100;\n        address manufacturer = MAN[med.MANid].addr;\n\n        require(msg.value == paymentAmount, \"Incorrect payment amount.\");\n        payable(manufacturer).transfer(paymentAmount);\n\n        med.SHIPid = findShippingAgent(msg.sender);\n        med.stage = STAGE.Shipping;\n        emit StageUpdated(_productId, STAGE.Shipping);\n        emit PaymentMade(msg.sender, manufacturer, msg.value, _productId, STAGE.Shipping);\n    }\n\n    function startDistribution(uint256 _productId) public payable {\n        Medicine storage med = MedicineStock[_productId];\n        uint256 paymentAmount = (med.price * med.quantity) * 135 / 100;\n        address shipping = SHIP[med.SHIPid].addr;\n\n        require(msg.value == paymentAmount, \"Incorrect payment amount.\");\n        payable(shipping).transfer(paymentAmount);\n\n        med.DISid = findDistributor(msg.sender);\n        med.stage = STAGE.Distribution;\n        emit StageUpdated(_productId, STAGE.Distribution);\n        emit PaymentMade(msg.sender, shipping, msg.value, _productId, STAGE.Distribution);\n    }\n\n    function storeInWarehouse(uint256 _productId) public payable {\n        Medicine storage med = MedicineStock[_productId];\n        uint256 paymentAmount = (med.price * med.quantity) * 145 / 100;\n        address distributor = DIS[med.DISid].addr;\n\n        require(msg.value == paymentAmount, \"Incorrect payment amount.\");\n        payable(distributor).transfer(paymentAmount);\n\n        med.WARid = findWarehouseAgent(msg.sender);\n        med.stage = STAGE.Warehouse;\n        emit StageUpdated(_productId, STAGE.Warehouse);\n        emit PaymentMade(msg.sender, distributor, msg.value, _productId, STAGE.Warehouse);\n    }\n\n    function sell(uint256 _medicineID) public payable {\n        require(_medicineID > 0 && _medicineID <= medicineCtr, \"Invalid medicine ID.\");\n        uint256 _id = findWarehouseAgent(msg.sender);\n        require(_id > 0, \"Warehouse agent not found.\");\n        require(_id == MedicineStock[_medicineID].WARid, \"Unauthorized warehouse.\");\n        require(MedicineStock[_medicineID].stage == STAGE.Warehouse, \"Incorrect stage.\");\n\n        Medicine storage med = MedicineStock[_medicineID];\n        uint256 totalPrice = med.price * med.quantity;\n        uint256 amountWarehouse = totalPrice * 145 / 100;\n\n        require(msg.value == amountWarehouse, \"Incorrect payment amount.\");\n\n        // Pay the previous entities\n        address manufacturer = MAN[med.MANid].addr;\n        address shipping = SHIP[med.SHIPid].addr;\n        address distributor = DIS[med.DISid].addr;\n\n        // Payment from Warehouse to Distributor\n        payable(distributor).transfer(amountWarehouse);\n        // Payment from Distributor to Shipping\n        payable(shipping).transfer(amountWarehouse * 135 / 145);\n        // Payment from Shipping to Manufacturer\n        payable(manufacturer).transfer(amountWarehouse * 125 / 145);\n\n        // Mark the medicine as sold\n        med.stage = STAGE.Sold;\n        emit StageUpdated(_medicineID, STAGE.Sold);\n    }\n\n    function addMedicine(\n        string memory _name,\n        uint256 _price,\n        uint256 _quantity,\n        uint256 _expirationDate\n    ) public onlyByOwner {\n        medicineCtr++;\n        MedicineStock[medicineCtr] = Medicine(\n            medicineCtr,\n            _name,\n            _price,\n            _quantity,\n            _expirationDate,\n            block.timestamp,\n            0, // Initialize manufacturer ID\n            0, // Initialize shipping ID\n            0, // Initialize distributor ID\n            0, // Initialize warehouse ID\n            STAGE.Init\n        );\n    }\n\n    function addManufacturer(\n        address _addr,\n        string memory _name,\n        string memory _place\n    ) public onlyByOwner {\n        manCtr++;\n        MAN[manCtr] = Manufacturer(_addr, manCtr, _name, _place);\n    }\n\n    function addShippingAgent(\n        address _addr,\n        string memory _name,\n        string memory _place\n    ) public onlyByOwner {\n        shipCtr++;\n        SHIP[shipCtr] = ShippingAgent(_addr, shipCtr, _name, _place);\n    }\n\n    function addDistributor(\n        address _addr,\n        string memory _name,\n        string memory _place\n    ) public onlyByOwner {\n        disCtr++;\n        DIS[disCtr] = Distributor(_addr, disCtr, _name, _place);\n    }\n\n    function addWarehouseAgent(\n        address _addr,\n        string memory _name,\n        string memory _place\n    ) public onlyByOwner {\n        warCtr++;\n        WAR[warCtr] = WarehouseAgent(_addr, warCtr, _name, _place);\n    }\n\n    receive() external payable {}\n}\n",
  "sourcePath": "D:\\supply-chain-main\\supply-chain-main\\contracts\\SupplyChain.sol",
  "compiler": {
    "name": "solc",
    "version": "0.8.0+commit.c7dfd78e.Emscripten.clang"
  },
  "schemaVersion": "3.4.16",
  "updatedAt": "2024-08-11T07:54:42.424Z",
  "networkType": "ethereum",
  "devdoc": {
    "kind": "dev",
    "methods": {},
    "version": 1
  },
  "userdoc": {
    "kind": "user",
    "methods": {},
    "version": 1
  }
}